:100000000C942A000C9447000C9447000C94470071
:100010000C9447000C9447000C9447000C94470044
:100020000C9447000C9447000C9447000C94470034
:100030000C9447000C9447000C9447000C94470024
:100040000C9447000C9447000C9447000C94470014
:100050000C94470011241FBECFE5D8E0DEBFCDBF12
:1000600010E0A0E6B0E0E4E5FCE002C005900D92EF
:10007000A036B107D9F710E0A0E6B0E001C01D92AC
:10008000A436B107E1F70E94A6040C9428060C944C
:100090000000843409F454C0853448F4823499F162
:1000A000833408F06AC0813409F083C00FC08236FF
:1000B00051F1833620F4813609F07BC007C08336C6
:1000C00009F45BC0843609F074C03AC0413069F469
:1000D0002AB381E090E0AC0102C0440F551F6A953D
:1000E000E2F7BA01622B6ABB08952AB381E090E07F
:1000F000AC0102C0440F551F6A95E2F7BA01609542
:1001000062236ABB0895413069F427B381E090E02F
:10011000AC0102C0440F551F6A95E2F7BA01622B89
:1001200067BB089527B381E090E0AC0102C0440FA3
:10013000551F6A95E2F7BA016095622367BB08957F
:10014000413069F421B381E090E0AC0102C0440F7A
:10015000551F6A95E2F7BA01622B61BB089521B37E
:1001600081E090E0AC0102C0440F551F6A95E2F7B0
:10017000BA016095622361BB0895413069F424B3EC
:1001800081E090E0AC0102C0440F551F6A95E2F790
:10019000BA01622B64BB089524B381E090E0AC0106
:1001A00002C0440F551F6A95E2F7BA0160956223B9
:1001B00064BB0895843409F454C0853448F482340F
:1001C00099F1833408F06AC0813409F083C00FC00C
:1001D000823651F1833620F4813609F07BC007C0A6
:1001E000833609F45BC0843609F074C03AC04130EC
:1001F00069F42BB381E090E0AC0102C0440F551FBD
:100200006A95E2F7BA01622B6BBB08952BB381E0CC
:1002100090E0AC0102C0440F551F6A95E2F7BA01A5
:10022000609562236BBB0895413069F428B381E087
:1002300090E0AC0102C0440F551F6A95E2F7BA0185
:10024000622B68BB089528B381E090E0AC0102C046
:10025000440F551F6A95E2F7BA016095622368BBA7
:100260000895413069F422B381E090E0AC0102C00E
:10027000440F551F6A95E2F7BA01622B62BB0895DD
:1002800022B381E090E0AC0102C0440F551F6A9593
:10029000E2F7BA016095622362BB0895413069F4C8
:1002A00025B381E090E0AC0102C0440F551F6A9570
:1002B000E2F7BA01622B65BB089525B381E090E0B7
:1002C000AC0102C0440F551F6A95E2F7BA01609570
:1002D000622365BB0895843481F1853440F482340F
:1002E000F9F08334B8F5813409F040C00CC082368F
:1002F000B9F0833618F48136C9F505C0833651F15B
:100300008436A1F51AC02BB381E090E0AC0102C0A5
:10031000440F551F6A95E2F7BA0162276BBB089537
:1003200028B381E090E0AC0102C0440F551F6A95EC
:10033000E2F7BA01622768BB089522B381E090E03A
:10034000AC0102C0440F551F6A95E2F7BA0162275B
:1003500062BB089525B381E090E0AC0102C0440F78
:10036000551F6A95E2F7BA01622765BB0895843488
:1003700009F451C0853440F4823439F18334C0F536
:10038000813409F05AC00EC08236F9F0833620F469
:10039000813609F052C006C0833651F1843609F027
:1003A0004CC039C029B381E090E0062E02C0880F0E
:1003B000991F0A94E2F730E08223932302C09695B6
:1003C00087956A95E2F7982F38C026B381E090E0D0
:1003D000062E02C0880F991F0A94E2F730E08223AC
:1003E000932302C0969587956A95E2F7982F25C0CA
:1003F00023B381E090E0062E02C0880F991F0A9473
:10040000E2F730E08223932302C0969587956A95A0
:10041000E2F7982F12C020B381E090E0062E02C0D0
:10042000880F991F0A94E2F730E08223932302C0D9
:10043000969587956A95E2F7982F892F08958434C9
:10044000C9F0853438F4823499F08334A8F48134C7
:10045000A1F40CC0823661F0833618F4813669F459
:1004600005C0833649F0843641F404C06ABB089560
:1004700067BB089561BB089564BB08958434C9F0D7
:10048000853438F4823499F08334A8F48134A1F4AB
:100490000CC0823661F0833618F4813669F405C0E9
:1004A000833649F0843641F404C06BBB089568BBC1
:1004B000089562BB089565BB08958434D1F08534F6
:1004C00038F4823499F08334B8F48134B9F40CC030
:1004D000823661F0833618F4813681F405C08336A4
:1004E00059F0843659F405C099B308C086B388BB67
:1004F00005C080B382BB02C083B385BB892F08953A
:100500008434E9F0853438F48234A9F08334D8F4A3
:100510008134E1F40CC0823671F0833618F48136F0
:10052000A9F405C0833679F0843681F408C08BB312
:1005300080958BBB089588B3809588BB089582B35E
:10054000809582BB089585B3809585BB08958234DC
:1005500051F1833420F4813409F07BC007C0833427
:1005600009F43EC0843409F074C057C0413069F4C6
:100570002BB381E090E0AC0102C0440F551F6A9597
:10058000E2F7BA01622B6BBB08952BB381E090E0D8
:10059000AC0102C0440F551F6A95E2F7BA0160959D
:1005A00062236BBB0895413069F428B381E090E089
:1005B000AC0102C0440F551F6A95E2F7BA01622BE5
:1005C00068BB089528B381E090E0AC0102C0440FFD
:1005D000551F6A95E2F7BA016095622368BB0895DA
:1005E000413069F425B381E090E0AC0102C0440FD2
:1005F000551F6A95E2F7BA01622B65BB089525B3D2
:1006000081E090E0AC0102C0440F551F6A95E2F70B
:10061000BA016095622365BB0895413069F422B345
:1006200081E090E0AC0102C0440F551F6A95E2F7EB
:10063000BA01622B62BB089522B381E090E0AC0165
:1006400002C0440F551F6A95E2F7BA016095622314
:1006500062BB08956F70823489F0833418F481345A
:1006600009F505C0833489F08434E1F415C08BB3F7
:10067000807F8BBB8BB3682B6BBB089588B3807F67
:1006800088BB88B3682B68BB089585B3807F85BB22
:1006900085B3682B65BB089582B3807F82BB82B32C
:1006A000682B62BB08956295607F823489F0833441
:1006B00018F4813409F505C0833489F08434E1F4F9
:1006C00015C08BB38F708BBB8BB3682B6BBB08953E
:1006D00088B38F7088BB88B3682B68BB089585B3D7
:1006E0008F7085BB85B3682B65BB089582B38F700F
:1006F00082BB82B3682B62BB08958FEF87BB8ABB36
:100700000895BB9A81B3806B81BB8AE683BF85BDA8
:1007100081EA8FBD8AE08EBD0895823061F083301A
:1007200018F4813089F405C0833039F0843061F4E5
:1007300008C06CBF089563BD089570E079BD68BDC1
:10074000089570E07BBD6ABD0895CF939C01B90107
:10075000882777FD8095982F0E9439052FE135E88D
:100760004BE65FE30E949D050E940B05C62F83E0C8
:100770006C2F0E948D0384E06C2F0E948D0382E415
:1007800060E040E00E94DA0082E461E041E00E9423
:10079000DA0082E464E041E00E94DA0082E465E08D
:1007A00040E00E94DA00CF910895CF93C82F81E0F6
:1007B0006C2F0E948D0382E06C2F0E948D0381E4D8
:1007C00060E040E00E94DA0081E461E041E00E94E4
:1007D000DA0081E464E041E00E94DA0081E465E04F
:1007E00040E00E94DA00CF910895CF93DF93EC01AF
:1007F0000E94A503CE010E94D503DF91CF910895F9
:10080000CF93C82F81E06C2F0E948D0382E06C2F64
:100810000E948D0381E460E041E00E94DA0081E4FF
:1008200061E040E00E94DA0081E464E040E00E9480
:10083000DA0081E465E041E00E94DA00CF9108959A
:10084000CF93DF93EC010E94A503CE010E94000428
:10085000DF91CF910895CF939C01B901882777FD4F
:100860008095982F0E9439052FE135E84BE65FE32C
:100870000E949D050E940B05C62F83E06C2F0E94ED
:100880008D0384E06C2F0E948D0382E460E041E0E0
:100890000E94DA0082E461E040E00E94DA0082E433
:1008A00064E040E00E94DA0082E465E041E00E94FA
:1008B000DA00CF91089580E090E00E942B0480E060
:1008C00090E00E9400040895CF93DF93EC010E9412
:1008D0002B04CE010E94D503DF91CF910895CF93D1
:1008E000DF93EC010E942B04CE010E940004DF91F3
:1008F000CF910895CF93DF93D82FC92F282F392F69
:10090000332314F42F5F3F4FC901959587950E94BB
:1009100000048D2F9C2F0E942B04DF91CF9108950E
:10092000CF93DF93D82FC92F282F392F332314F4D7
:100930002F5F3F4FC901959587950E942B048D2FFE
:100940009C2F0E940004DF91CF9108950E947D03A7
:100950000E94810384E460E040E00E94490084E456
:1009600061E040E00E94490084E460E00E94B70139
:1009700090E0909363008093620084E461E00E94C1
:10098000B70190E0909361008093600080916200D5
:10099000909163008130910559F4809160009091AD
:1009A00061008130910521F486E490E00E946F049B
:1009B0008091620090916300009759F480916000EB
:1009C000909161008130910521F488E790E00E94C8
:1009D000900480916200909163008130910551F400
:1009E0008091600090916100009721F488E790E089
:1009F0000E947A048091620090916300009709F050
:100A0000B3CF8091600090916100009709F0ACCF66
:100A10000E945B04A9CF70D088F09F5790F0B92F47
:100A20009927B751A0F0D1F0660F771F881F991F43
:100A30001AF0BA95C9F712C0B13081F077D0B1E0A1
:100A4000089574C0672F782F8827B85F39F0B93FB1
:100A5000CCF3869577956795B395D9F73EF4909545
:100A60008095709561957F4F8F4F9F4F0895E894C3
:100A700009C097FB3EF490958095709561957F4FE6
:100A80008F4F9F4F9923A9F0F92F96E9BB27939594
:100A9000F695879577956795B795F111F8CFFAF4A4
:100AA000BB0F11F460FF1BC06F5F7F4F8F4F9F4FD5
:100AB00016C0882311F096E911C0772321F09EE833
:100AC000872F762F05C0662371F096E8862F70E099
:100AD00060E02AF09A95660F771F881FDAF7880F73
:100AE0009695879597F9089557FD9058440F551F8F
:100AF00059F05F3F71F04795880F97FB991F61F0A0
:100B00009F3F79F087950895121613061406551F16
:100B1000F2CF4695F1DF08C0161617061806991F82
:100B2000F1CF86957105610508940895E894BB2777
:100B300066277727CB0197F908950BD078C069D045
:100B400028F06ED018F0952309F05AC05FC0112428
:100B5000EECFCADFA0F3959FD1F3950F50E0551F5C
:100B6000629FF001729FBB27F00DB11D639FAA2702
:100B7000F00DB11DAA1F649F6627B00DA11D661F51
:100B8000829F2227B00DA11D621F739FB00DA11D72
:100B9000621F839FA00D611D221F749F3327A00D2C
:100BA000611D231F849F600D211D822F762F6A2FC8
:100BB00011249F5750408AF0E1F088234AF0EE0F4D
:100BC000FF1FBB1F661F771F881F91505040A9F75A
:100BD0009E3F510570F014C0AACF5F3FECF3983EE2
:100BE000DCF3869577956795B795F795E7959F5FC1
:100BF000C1F7FE2B880F911D9695879597F908955B
:100C000097F99F6780E870E060E008959FEF80ECBF
:100C1000089500240A941616170618060906089562
:100C200000240A9412161306140605060895092EC8
:100C30000394000C11F4882352F0BB0F40F4BF2B37
:100C400011F460FF04C06F5F7F4F8F4F9F4F089577
:040C5000F894FFCF46
:00000001FF
